{
  "_format": "hh-sol-artifact-1",
  "contractName": "TinderERC721",
  "sourceName": "contracts/TinderERC721.sol",
  "abi": [
    {
      "inputs": [],
      "stateMutability": "nonpayable",
      "type": "constructor"
    },
    {
      "anonymous": false,
      "inputs": [
        {
          "indexed": true,
          "internalType": "address",
          "name": "owner",
          "type": "address"
        },
        {
          "indexed": true,
          "internalType": "address",
          "name": "approved",
          "type": "address"
        },
        {
          "indexed": true,
          "internalType": "uint256",
          "name": "tokenId",
          "type": "uint256"
        }
      ],
      "name": "Approval",
      "type": "event"
    },
    {
      "anonymous": false,
      "inputs": [
        {
          "indexed": true,
          "internalType": "address",
          "name": "owner",
          "type": "address"
        },
        {
          "indexed": true,
          "internalType": "address",
          "name": "operator",
          "type": "address"
        },
        {
          "indexed": false,
          "internalType": "bool",
          "name": "approved",
          "type": "bool"
        }
      ],
      "name": "ApprovalForAll",
      "type": "event"
    },
    {
      "anonymous": false,
      "inputs": [
        {
          "indexed": true,
          "internalType": "address",
          "name": "from",
          "type": "address"
        },
        {
          "indexed": true,
          "internalType": "address",
          "name": "to",
          "type": "address"
        },
        {
          "indexed": true,
          "internalType": "uint256",
          "name": "tokenId",
          "type": "uint256"
        }
      ],
      "name": "Transfer",
      "type": "event"
    },
    {
      "inputs": [],
      "name": "TINDER_TOKEN_ID",
      "outputs": [
        {
          "internalType": "uint256",
          "name": "_value",
          "type": "uint256"
        }
      ],
      "stateMutability": "view",
      "type": "function"
    },
    {
      "inputs": [
        {
          "internalType": "address",
          "name": "to",
          "type": "address"
        },
        {
          "internalType": "uint256",
          "name": "tokenId",
          "type": "uint256"
        }
      ],
      "name": "approve",
      "outputs": [],
      "stateMutability": "nonpayable",
      "type": "function"
    },
    {
      "inputs": [
        {
          "internalType": "address",
          "name": "owner",
          "type": "address"
        }
      ],
      "name": "balanceOf",
      "outputs": [
        {
          "internalType": "uint256",
          "name": "",
          "type": "uint256"
        }
      ],
      "stateMutability": "view",
      "type": "function"
    },
    {
      "inputs": [
        {
          "internalType": "uint256",
          "name": "tokenId",
          "type": "uint256"
        }
      ],
      "name": "getApproved",
      "outputs": [
        {
          "internalType": "address",
          "name": "",
          "type": "address"
        }
      ],
      "stateMutability": "view",
      "type": "function"
    },
    {
      "inputs": [
        {
          "internalType": "address",
          "name": "owner",
          "type": "address"
        },
        {
          "internalType": "address",
          "name": "operator",
          "type": "address"
        }
      ],
      "name": "isApprovedForAll",
      "outputs": [
        {
          "internalType": "bool",
          "name": "",
          "type": "bool"
        }
      ],
      "stateMutability": "view",
      "type": "function"
    },
    {
      "inputs": [
        {
          "internalType": "address",
          "name": "_userOne",
          "type": "address"
        },
        {
          "internalType": "address",
          "name": "_userTwo",
          "type": "address"
        },
        {
          "internalType": "string",
          "name": "tokenURI",
          "type": "string"
        }
      ],
      "name": "mintNFT",
      "outputs": [],
      "stateMutability": "nonpayable",
      "type": "function"
    },
    {
      "inputs": [],
      "name": "name",
      "outputs": [
        {
          "internalType": "string",
          "name": "",
          "type": "string"
        }
      ],
      "stateMutability": "view",
      "type": "function"
    },
    {
      "inputs": [
        {
          "internalType": "uint256",
          "name": "tokenId",
          "type": "uint256"
        }
      ],
      "name": "ownerOf",
      "outputs": [
        {
          "internalType": "address",
          "name": "",
          "type": "address"
        }
      ],
      "stateMutability": "view",
      "type": "function"
    },
    {
      "inputs": [
        {
          "internalType": "address",
          "name": "from",
          "type": "address"
        },
        {
          "internalType": "address",
          "name": "to",
          "type": "address"
        },
        {
          "internalType": "uint256",
          "name": "tokenId",
          "type": "uint256"
        }
      ],
      "name": "safeTransferFrom",
      "outputs": [],
      "stateMutability": "nonpayable",
      "type": "function"
    },
    {
      "inputs": [
        {
          "internalType": "address",
          "name": "from",
          "type": "address"
        },
        {
          "internalType": "address",
          "name": "to",
          "type": "address"
        },
        {
          "internalType": "uint256",
          "name": "tokenId",
          "type": "uint256"
        },
        {
          "internalType": "bytes",
          "name": "_data",
          "type": "bytes"
        }
      ],
      "name": "safeTransferFrom",
      "outputs": [],
      "stateMutability": "nonpayable",
      "type": "function"
    },
    {
      "inputs": [
        {
          "internalType": "address",
          "name": "operator",
          "type": "address"
        },
        {
          "internalType": "bool",
          "name": "approved",
          "type": "bool"
        }
      ],
      "name": "setApprovalForAll",
      "outputs": [],
      "stateMutability": "nonpayable",
      "type": "function"
    },
    {
      "inputs": [
        {
          "internalType": "bytes4",
          "name": "interfaceId",
          "type": "bytes4"
        }
      ],
      "name": "supportsInterface",
      "outputs": [
        {
          "internalType": "bool",
          "name": "",
          "type": "bool"
        }
      ],
      "stateMutability": "view",
      "type": "function"
    },
    {
      "inputs": [],
      "name": "symbol",
      "outputs": [
        {
          "internalType": "string",
          "name": "",
          "type": "string"
        }
      ],
      "stateMutability": "view",
      "type": "function"
    },
    {
      "inputs": [
        {
          "internalType": "uint256",
          "name": "tokenId",
          "type": "uint256"
        }
      ],
      "name": "tokenURI",
      "outputs": [
        {
          "internalType": "string",
          "name": "",
          "type": "string"
        }
      ],
      "stateMutability": "view",
      "type": "function"
    },
    {
      "inputs": [
        {
          "internalType": "address",
          "name": "from",
          "type": "address"
        },
        {
          "internalType": "address",
          "name": "to",
          "type": "address"
        },
        {
          "internalType": "uint256",
          "name": "tokenId",
          "type": "uint256"
        }
      ],
      "name": "transferFrom",
      "outputs": [],
      "stateMutability": "nonpayable",
      "type": "function"
    }
  ],
  "bytecode": "0x60806040523480156200001157600080fd5b506040518060400160405280600b81526020017f54696e646572426c6f636b0000000000000000000000000000000000000000008152506040518060400160405280600381526020017f5442430000000000000000000000000000000000000000000000000000000000815250816000908051906020019062000096929190620000b8565b508060019080519060200190620000af929190620000b8565b505050620001cd565b828054620000c69062000168565b90600052602060002090601f016020900481019282620000ea576000855562000136565b82601f106200010557805160ff191683800117855562000136565b8280016001018555821562000136579182015b828111156200013557825182559160200191906001019062000118565b5b50905062000145919062000149565b5090565b5b80821115620001645760008160009055506001016200014a565b5090565b600060028204905060018216806200018157607f821691505b602082108114156200019857620001976200019e565b5b50919050565b7f4e487b7100000000000000000000000000000000000000000000000000000000600052602260045260246000fd5b612bfb80620001dd6000396000f3fe608060405234801561001057600080fd5b50600436106100f55760003560e01c80636352211e11610097578063a22cb46511610066578063a22cb46514610284578063b88d4fde146102a0578063c87b56dd146102bc578063e985e9c5146102ec576100f5565b80636352211e146101ea57806370a082311461021a5780637c818f541461024a57806395d89b4114610266576100f5565b8063095ea7b3116100d3578063095ea7b3146101785780631797d3fb1461019457806323b872dd146101b257806342842e0e146101ce576100f5565b806301ffc9a7146100fa57806306fdde031461012a578063081812fc14610148575b600080fd5b610114600480360381019061010f9190611ca8565b61031c565b60405161012191906120ae565b60405180910390f35b6101326103fe565b60405161013f91906120c9565b60405180910390f35b610162600480360381019061015d9190611cfa565b610490565b60405161016f9190612047565b60405180910390f35b610192600480360381019061018d9190611c6c565b610515565b005b61019c61062d565b6040516101a991906122eb565b60405180910390f35b6101cc60048036038101906101c79190611b66565b610639565b005b6101e860048036038101906101e39190611b66565b610699565b005b61020460048036038101906101ff9190611cfa565b6106b9565b6040516102119190612047565b60405180910390f35b610234600480360381019061022f9190611a9a565b61076b565b60405161024191906122eb565b60405180910390f35b610264600480360381019061025f9190611aff565b610823565b005b61026e610888565b60405161027b91906120c9565b60405180910390f35b61029e60048036038101906102999190611c30565b61091a565b005b6102ba60048036038101906102b59190611bb5565b610930565b005b6102d660048036038101906102d19190611cfa565b610992565b6040516102e391906120c9565b60405180910390f35b61030660048036038101906103019190611ac3565b610ae4565b60405161031391906120ae565b60405180910390f35b60007f80ac58cd000000000000000000000000000000000000000000000000000000007bffffffffffffffffffffffffffffffffffffffffffffffffffffffff1916827bffffffffffffffffffffffffffffffffffffffffffffffffffffffff191614806103e757507f5b5e139f000000000000000000000000000000000000000000000000000000007bffffffffffffffffffffffffffffffffffffffffffffffffffffffff1916827bffffffffffffffffffffffffffffffffffffffffffffffffffffffff1916145b806103f757506103f682610b78565b5b9050919050565b60606000805461040d90612541565b80601f016020809104026020016040519081016040528092919081815260200182805461043990612541565b80156104865780601f1061045b57610100808354040283529160200191610486565b820191906000526020600020905b81548152906001019060200180831161046957829003601f168201915b5050505050905090565b600061049b82610be2565b6104da576040517f08c379a00000000000000000000000000000000000000000000000000000000081526004016104d19061226b565b60405180910390fd5b6004600083815260200190815260200160002060009054906101000a900473ffffffffffffffffffffffffffffffffffffffff169050919050565b6000610520826106b9565b90508073ffffffffffffffffffffffffffffffffffffffff168373ffffffffffffffffffffffffffffffffffffffff161415610591576040517f08c379a0000000000000000000000000000000000000000000000000000000008152600401610588906122ab565b60405180910390fd5b8073ffffffffffffffffffffffffffffffffffffffff166105b0610c4e565b73ffffffffffffffffffffffffffffffffffffffff1614806105df57506105de816105d9610c4e565b610ae4565b5b61061e576040517f08c379a0000000000000000000000000000000000000000000000000000000008152600401610615906121ab565b60405180910390fd5b6106288383610c56565b505050565b60078060000154905081565b61064a610644610c4e565b82610d0f565b610689576040517f08c379a0000000000000000000000000000000000000000000000000000000008152600401610680906122cb565b60405180910390fd5b610694838383610ded565b505050565b6106b483838360405180602001604052806000815250610930565b505050565b6000806002600084815260200190815260200160002060009054906101000a900473ffffffffffffffffffffffffffffffffffffffff169050600073ffffffffffffffffffffffffffffffffffffffff168173ffffffffffffffffffffffffffffffffffffffff161415610762576040517f08c379a0000000000000000000000000000000000000000000000000000000008152600401610759906121eb565b60405180910390fd5b80915050919050565b60008073ffffffffffffffffffffffffffffffffffffffff168273ffffffffffffffffffffffffffffffffffffffff1614156107dc576040517f08c379a00000000000000000000000000000000000000000000000000000000081526004016107d3906121cb565b60405180910390fd5b600360008373ffffffffffffffffffffffffffffffffffffffff1673ffffffffffffffffffffffffffffffffffffffff168152602001908152602001600020549050919050565b610836836108316007611054565b611062565b6108496108436007611054565b8261123c565b61085360076112b0565b610866826108616007611054565b611062565b6108796108736007611054565b8261123c565b61088360076112b0565b505050565b60606001805461089790612541565b80601f01602080910402602001604051908101604052809291908181526020018280546108c390612541565b80156109105780601f106108e557610100808354040283529160200191610910565b820191906000526020600020905b8154815290600101906020018083116108f357829003601f168201915b5050505050905090565b61092c610925610c4e565b83836112c6565b5050565b61094161093b610c4e565b83610d0f565b610980576040517f08c379a0000000000000000000000000000000000000000000000000000000008152600401610977906122cb565b60405180910390fd5b61098c84848484611433565b50505050565b606061099d82610be2565b6109dc576040517f08c379a00000000000000000000000000000000000000000000000000000000081526004016109d39061224b565b60405180910390fd5b60006006600084815260200190815260200160002080546109fc90612541565b80601f0160208091040260200160405190810160405280929190818152602001828054610a2890612541565b8015610a755780601f10610a4a57610100808354040283529160200191610a75565b820191906000526020600020905b815481529060010190602001808311610a5857829003601f168201915b505050505090506000610a8661148f565b9050600081511415610a9c578192505050610adf565b600082511115610ad1578082604051602001610ab9929190612023565b60405160208183030381529060405292505050610adf565b610ada846114a6565b925050505b919050565b6000600560008473ffffffffffffffffffffffffffffffffffffffff1673ffffffffffffffffffffffffffffffffffffffff16815260200190815260200160002060008373ffffffffffffffffffffffffffffffffffffffff1673ffffffffffffffffffffffffffffffffffffffff16815260200190815260200160002060009054906101000a900460ff16905092915050565b60007f01ffc9a7000000000000000000000000000000000000000000000000000000007bffffffffffffffffffffffffffffffffffffffffffffffffffffffff1916827bffffffffffffffffffffffffffffffffffffffffffffffffffffffff1916149050919050565b60008073ffffffffffffffffffffffffffffffffffffffff166002600084815260200190815260200160002060009054906101000a900473ffffffffffffffffffffffffffffffffffffffff1673ffffffffffffffffffffffffffffffffffffffff1614159050919050565b600033905090565b816004600083815260200190815260200160002060006101000a81548173ffffffffffffffffffffffffffffffffffffffff021916908373ffffffffffffffffffffffffffffffffffffffff160217905550808273ffffffffffffffffffffffffffffffffffffffff16610cc9836106b9565b73ffffffffffffffffffffffffffffffffffffffff167f8c5be1e5ebec7d5bd14f71427d1e84f3dd0314c0f7b2291e5b200ac8c7c3b92560405160405180910390a45050565b6000610d1a82610be2565b610d59576040517f08c379a0000000000000000000000000000000000000000000000000000000008152600401610d509061218b565b60405180910390fd5b6000610d64836106b9565b90508073ffffffffffffffffffffffffffffffffffffffff168473ffffffffffffffffffffffffffffffffffffffff161480610dd357508373ffffffffffffffffffffffffffffffffffffffff16610dbb84610490565b73ffffffffffffffffffffffffffffffffffffffff16145b80610de45750610de38185610ae4565b5b91505092915050565b8273ffffffffffffffffffffffffffffffffffffffff16610e0d826106b9565b73ffffffffffffffffffffffffffffffffffffffff1614610e63576040517f08c379a0000000000000000000000000000000000000000000000000000000008152600401610e5a9061210b565b60405180910390fd5b600073ffffffffffffffffffffffffffffffffffffffff168273ffffffffffffffffffffffffffffffffffffffff161415610ed3576040517f08c379a0000000000000000000000000000000000000000000000000000000008152600401610eca9061214b565b60405180910390fd5b610ede83838361154d565b610ee9600082610c56565b6001600360008573ffffffffffffffffffffffffffffffffffffffff1673ffffffffffffffffffffffffffffffffffffffff1681526020019081526020016000206000828254610f399190612457565b925050819055506001600360008473ffffffffffffffffffffffffffffffffffffffff1673ffffffffffffffffffffffffffffffffffffffff1681526020019081526020016000206000828254610f9091906123d0565b92505081905550816002600083815260200190815260200160002060006101000a81548173ffffffffffffffffffffffffffffffffffffffff021916908373ffffffffffffffffffffffffffffffffffffffff160217905550808273ffffffffffffffffffffffffffffffffffffffff168473ffffffffffffffffffffffffffffffffffffffff167fddf252ad1be2c89b69c2b068fc378daa952ba7f163c4a11628f55a4df523b3ef60405160405180910390a461104f838383611552565b505050565b600081600001549050919050565b600073ffffffffffffffffffffffffffffffffffffffff168273ffffffffffffffffffffffffffffffffffffffff1614156110d2576040517f08c379a00000000000000000000000000000000000000000000000000000000081526004016110c99061222b565b60405180910390fd5b6110db81610be2565b1561111b576040517f08c379a00000000000000000000000000000000000000000000000000000000081526004016111129061212b565b60405180910390fd5b6111276000838361154d565b6001600360008473ffffffffffffffffffffffffffffffffffffffff1673ffffffffffffffffffffffffffffffffffffffff168152602001908152602001600020600082825461117791906123d0565b92505081905550816002600083815260200190815260200160002060006101000a81548173ffffffffffffffffffffffffffffffffffffffff021916908373ffffffffffffffffffffffffffffffffffffffff160217905550808273ffffffffffffffffffffffffffffffffffffffff16600073ffffffffffffffffffffffffffffffffffffffff167fddf252ad1be2c89b69c2b068fc378daa952ba7f163c4a11628f55a4df523b3ef60405160405180910390a461123860008383611552565b5050565b61124582610be2565b611284576040517f08c379a000000000000000000000000000000000000000000000000000000000815260040161127b9061220b565b60405180910390fd5b806006600084815260200190815260200160002090805190602001906112ab9291906118be565b505050565b6001816000016000828254019250508190555050565b8173ffffffffffffffffffffffffffffffffffffffff168373ffffffffffffffffffffffffffffffffffffffff161415611335576040517f08c379a000000000000000000000000000000000000000000000000000000000815260040161132c9061216b565b60405180910390fd5b80600560008573ffffffffffffffffffffffffffffffffffffffff1673ffffffffffffffffffffffffffffffffffffffff16815260200190815260200160002060008473ffffffffffffffffffffffffffffffffffffffff1673ffffffffffffffffffffffffffffffffffffffff16815260200190815260200160002060006101000a81548160ff0219169083151502179055508173ffffffffffffffffffffffffffffffffffffffff168373ffffffffffffffffffffffffffffffffffffffff167f17307eab39ab6107e8899845ad3d59bd9653f200f220920489ca2b5937696c318360405161142691906120ae565b60405180910390a3505050565b61143e848484610ded565b61144a84848484611557565b611489576040517f08c379a0000000000000000000000000000000000000000000000000000000008152600401611480906120eb565b60405180910390fd5b50505050565b606060405180602001604052806000815250905090565b60606114b182610be2565b6114f0576040517f08c379a00000000000000000000000000000000000000000000000000000000081526004016114e79061228b565b60405180910390fd5b60006114fa61148f565b9050600081511161151a5760405180602001604052806000815250611545565b80611524846116ee565b604051602001611535929190612023565b6040516020818303038152906040525b915050919050565b505050565b505050565b60006115788473ffffffffffffffffffffffffffffffffffffffff1661189b565b156116e1578373ffffffffffffffffffffffffffffffffffffffff1663150b7a026115a1610c4e565b8786866040518563ffffffff1660e01b81526004016115c39493929190612062565b602060405180830381600087803b1580156115dd57600080fd5b505af192505050801561160e57506040513d601f19601f8201168201806040525081019061160b9190611cd1565b60015b611691573d806000811461163e576040519150601f19603f3d011682016040523d82523d6000602084013e611643565b606091505b50600081511415611689576040517f08c379a0000000000000000000000000000000000000000000000000000000008152600401611680906120eb565b60405180910390fd5b805181602001fd5b63150b7a0260e01b7bffffffffffffffffffffffffffffffffffffffffffffffffffffffff1916817bffffffffffffffffffffffffffffffffffffffffffffffffffffffff1916149150506116e6565b600190505b949350505050565b60606000821415611736576040518060400160405280600181526020017f30000000000000000000000000000000000000000000000000000000000000008152509050611896565b600082905060005b60008214611768578080611751906125a4565b915050600a826117619190612426565b915061173e565b60008167ffffffffffffffff8111156117aa577f4e487b7100000000000000000000000000000000000000000000000000000000600052604160045260246000fd5b6040519080825280601f01601f1916602001820160405280156117dc5781602001600182028036833780820191505090505b5090505b6000851461188f576001826117f59190612457565b9150600a8561180491906125ed565b603061181091906123d0565b60f81b81838151811061184c577f4e487b7100000000000000000000000000000000000000000000000000000000600052603260045260246000fd5b60200101907effffffffffffffffffffffffffffffffffffffffffffffffffffffffffffff1916908160001a905350600a856118889190612426565b94506117e0565b8093505050505b919050565b6000808273ffffffffffffffffffffffffffffffffffffffff163b119050919050565b8280546118ca90612541565b90600052602060002090601f0160209004810192826118ec5760008555611933565b82601f1061190557805160ff1916838001178555611933565b82800160010185558215611933579182015b82811115611932578251825591602001919060010190611917565b5b5090506119409190611944565b5090565b5b8082111561195d576000816000905550600101611945565b5090565b600061197461196f8461232b565b612306565b90508281526020810184848401111561198c57600080fd5b6119978482856124ff565b509392505050565b60006119b26119ad8461235c565b612306565b9050828152602081018484840111156119ca57600080fd5b6119d58482856124ff565b509392505050565b6000813590506119ec81612b69565b92915050565b600081359050611a0181612b80565b92915050565b600081359050611a1681612b97565b92915050565b600081519050611a2b81612b97565b92915050565b600082601f830112611a4257600080fd5b8135611a52848260208601611961565b91505092915050565b600082601f830112611a6c57600080fd5b8135611a7c84826020860161199f565b91505092915050565b600081359050611a9481612bae565b92915050565b600060208284031215611aac57600080fd5b6000611aba848285016119dd565b91505092915050565b60008060408385031215611ad657600080fd5b6000611ae4858286016119dd565b9250506020611af5858286016119dd565b9150509250929050565b600080600060608486031215611b1457600080fd5b6000611b22868287016119dd565b9350506020611b33868287016119dd565b925050604084013567ffffffffffffffff811115611b5057600080fd5b611b5c86828701611a5b565b9150509250925092565b600080600060608486031215611b7b57600080fd5b6000611b89868287016119dd565b9350506020611b9a868287016119dd565b9250506040611bab86828701611a85565b9150509250925092565b60008060008060808587031215611bcb57600080fd5b6000611bd9878288016119dd565b9450506020611bea878288016119dd565b9350506040611bfb87828801611a85565b925050606085013567ffffffffffffffff811115611c1857600080fd5b611c2487828801611a31565b91505092959194509250565b60008060408385031215611c4357600080fd5b6000611c51858286016119dd565b9250506020611c62858286016119f2565b9150509250929050565b60008060408385031215611c7f57600080fd5b6000611c8d858286016119dd565b9250506020611c9e85828601611a85565b9150509250929050565b600060208284031215611cba57600080fd5b6000611cc884828501611a07565b91505092915050565b600060208284031215611ce357600080fd5b6000611cf184828501611a1c565b91505092915050565b600060208284031215611d0c57600080fd5b6000611d1a84828501611a85565b91505092915050565b611d2c8161248b565b82525050565b611d3b8161249d565b82525050565b6000611d4c8261238d565b611d5681856123a3565b9350611d6681856020860161250e565b611d6f816126da565b840191505092915050565b6000611d8582612398565b611d8f81856123b4565b9350611d9f81856020860161250e565b611da8816126da565b840191505092915050565b6000611dbe82612398565b611dc881856123c5565b9350611dd881856020860161250e565b80840191505092915050565b6000611df16032836123b4565b9150611dfc826126eb565b604082019050919050565b6000611e146025836123b4565b9150611e1f8261273a565b604082019050919050565b6000611e37601c836123b4565b9150611e4282612789565b602082019050919050565b6000611e5a6024836123b4565b9150611e65826127b2565b604082019050919050565b6000611e7d6019836123b4565b9150611e8882612801565b602082019050919050565b6000611ea0602c836123b4565b9150611eab8261282a565b604082019050919050565b6000611ec36038836123b4565b9150611ece82612879565b604082019050919050565b6000611ee6602a836123b4565b9150611ef1826128c8565b604082019050919050565b6000611f096029836123b4565b9150611f1482612917565b604082019050919050565b6000611f2c602e836123b4565b9150611f3782612966565b604082019050919050565b6000611f4f6020836123b4565b9150611f5a826129b5565b602082019050919050565b6000611f726031836123b4565b9150611f7d826129de565b604082019050919050565b6000611f95602c836123b4565b9150611fa082612a2d565b604082019050919050565b6000611fb8602f836123b4565b9150611fc382612a7c565b604082019050919050565b6000611fdb6021836123b4565b9150611fe682612acb565b604082019050919050565b6000611ffe6031836123b4565b915061200982612b1a565b604082019050919050565b61201d816124f5565b82525050565b600061202f8285611db3565b915061203b8284611db3565b91508190509392505050565b600060208201905061205c6000830184611d23565b92915050565b60006080820190506120776000830187611d23565b6120846020830186611d23565b6120916040830185612014565b81810360608301526120a38184611d41565b905095945050505050565b60006020820190506120c36000830184611d32565b92915050565b600060208201905081810360008301526120e38184611d7a565b905092915050565b6000602082019050818103600083015261210481611de4565b9050919050565b6000602082019050818103600083015261212481611e07565b9050919050565b6000602082019050818103600083015261214481611e2a565b9050919050565b6000602082019050818103600083015261216481611e4d565b9050919050565b6000602082019050818103600083015261218481611e70565b9050919050565b600060208201905081810360008301526121a481611e93565b9050919050565b600060208201905081810360008301526121c481611eb6565b9050919050565b600060208201905081810360008301526121e481611ed9565b9050919050565b6000602082019050818103600083015261220481611efc565b9050919050565b6000602082019050818103600083015261222481611f1f565b9050919050565b6000602082019050818103600083015261224481611f42565b9050919050565b6000602082019050818103600083015261226481611f65565b9050919050565b6000602082019050818103600083015261228481611f88565b9050919050565b600060208201905081810360008301526122a481611fab565b9050919050565b600060208201905081810360008301526122c481611fce565b9050919050565b600060208201905081810360008301526122e481611ff1565b9050919050565b60006020820190506123006000830184612014565b92915050565b6000612310612321565b905061231c8282612573565b919050565b6000604051905090565b600067ffffffffffffffff821115612346576123456126ab565b5b61234f826126da565b9050602081019050919050565b600067ffffffffffffffff821115612377576123766126ab565b5b612380826126da565b9050602081019050919050565b600081519050919050565b600081519050919050565b600082825260208201905092915050565b600082825260208201905092915050565b600081905092915050565b60006123db826124f5565b91506123e6836124f5565b9250827fffffffffffffffffffffffffffffffffffffffffffffffffffffffffffffffff0382111561241b5761241a61261e565b5b828201905092915050565b6000612431826124f5565b915061243c836124f5565b92508261244c5761244b61264d565b5b828204905092915050565b6000612462826124f5565b915061246d836124f5565b9250828210156124805761247f61261e565b5b828203905092915050565b6000612496826124d5565b9050919050565b60008115159050919050565b60007fffffffff0000000000000000000000000000000000000000000000000000000082169050919050565b600073ffffffffffffffffffffffffffffffffffffffff82169050919050565b6000819050919050565b82818337600083830152505050565b60005b8381101561252c578082015181840152602081019050612511565b8381111561253b576000848401525b50505050565b6000600282049050600182168061255957607f821691505b6020821081141561256d5761256c61267c565b5b50919050565b61257c826126da565b810181811067ffffffffffffffff8211171561259b5761259a6126ab565b5b80604052505050565b60006125af826124f5565b91507fffffffffffffffffffffffffffffffffffffffffffffffffffffffffffffffff8214156125e2576125e161261e565b5b600182019050919050565b60006125f8826124f5565b9150612603836124f5565b9250826126135761261261264d565b5b828206905092915050565b7f4e487b7100000000000000000000000000000000000000000000000000000000600052601160045260246000fd5b7f4e487b7100000000000000000000000000000000000000000000000000000000600052601260045260246000fd5b7f4e487b7100000000000000000000000000000000000000000000000000000000600052602260045260246000fd5b7f4e487b7100000000000000000000000000000000000000000000000000000000600052604160045260246000fd5b6000601f19601f8301169050919050565b7f4552433732313a207472616e7366657220746f206e6f6e20455243373231526560008201527f63656976657220696d706c656d656e7465720000000000000000000000000000602082015250565b7f4552433732313a207472616e736665722066726f6d20696e636f72726563742060008201527f6f776e6572000000000000000000000000000000000000000000000000000000602082015250565b7f4552433732313a20746f6b656e20616c7265616479206d696e74656400000000600082015250565b7f4552433732313a207472616e7366657220746f20746865207a65726f2061646460008201527f7265737300000000000000000000000000000000000000000000000000000000602082015250565b7f4552433732313a20617070726f766520746f2063616c6c657200000000000000600082015250565b7f4552433732313a206f70657261746f7220717565727920666f72206e6f6e657860008201527f697374656e7420746f6b656e0000000000000000000000000000000000000000602082015250565b7f4552433732313a20617070726f76652063616c6c6572206973206e6f74206f7760008201527f6e6572206e6f7220617070726f76656420666f7220616c6c0000000000000000602082015250565b7f4552433732313a2062616c616e636520717565727920666f7220746865207a6560008201527f726f206164647265737300000000000000000000000000000000000000000000602082015250565b7f4552433732313a206f776e657220717565727920666f72206e6f6e657869737460008201527f656e7420746f6b656e0000000000000000000000000000000000000000000000602082015250565b7f45524337323155524953746f726167653a2055524920736574206f66206e6f6e60008201527f6578697374656e7420746f6b656e000000000000000000000000000000000000602082015250565b7f4552433732313a206d696e7420746f20746865207a65726f2061646472657373600082015250565b7f45524337323155524953746f726167653a2055524920717565727920666f722060008201527f6e6f6e6578697374656e7420746f6b656e000000000000000000000000000000602082015250565b7f4552433732313a20617070726f76656420717565727920666f72206e6f6e657860008201527f697374656e7420746f6b656e0000000000000000000000000000000000000000602082015250565b7f4552433732314d657461646174613a2055524920717565727920666f72206e6f60008201527f6e6578697374656e7420746f6b656e0000000000000000000000000000000000602082015250565b7f4552433732313a20617070726f76616c20746f2063757272656e74206f776e6560008201527f7200000000000000000000000000000000000000000000000000000000000000602082015250565b7f4552433732313a207472616e736665722063616c6c6572206973206e6f74206f60008201527f776e6572206e6f7220617070726f766564000000000000000000000000000000602082015250565b612b728161248b565b8114612b7d57600080fd5b50565b612b898161249d565b8114612b9457600080fd5b50565b612ba0816124a9565b8114612bab57600080fd5b50565b612bb7816124f5565b8114612bc257600080fd5b5056fea2646970667358221220b335fdb253137dd902fc6df68dd40b63b84b7009a167433e0d803c7d6727f40f64736f6c63430008040033",
  "linkReferences": {},
  "deployedLinkReferences": {}
}